{
  "contractName": "Zagite",
  "abi": [
    {
      "constant": true,
      "inputs": [
        {
          "name": "",
          "type": "uint256"
        }
      ],
      "name": "padresAccts",
      "outputs": [
        {
          "name": "",
          "type": "address"
        }
      ],
      "payable": false,
      "stateMutability": "view",
      "type": "function"
    },
    {
      "constant": true,
      "inputs": [
        {
          "name": "",
          "type": "uint256"
        },
        {
          "name": "nombre",
          "type": "string"
        },
        {
          "name": "apellido",
          "type": "string"
        },
        {
          "name": "email",
          "type": "string"
        },
        {
          "name": "contrasena",
          "type": "string"
        },
        {
          "name": "tipo",
          "type": "string"
        }
      ],
      "name": "profesoresAccts",
      "outputs": [
        {
          "name": "",
          "type": "address"
        }
      ],
      "payable": false,
      "stateMutability": "view",
      "type": "function"
    },
    {
      "constant": false,
      "inputs": [
        {
          "name": "_address",
          "type": "address"
        },
        {
          "name": "nombre",
          "type": "string"
        },
        {
          "name": "apellido",
          "type": "string"
        },
        {
          "name": "cedula",
          "type": "string"
        },
        {
          "name": "email",
          "type": "string"
        },
        {
          "name": "contrasena",
          "type": "string"
        },
        {
          "name": "nombreEstudiante",
          "type": "string"
        }
      ],
      "name": "registrarPadres",
      "outputs": [
        {
          "name": "",
          "type": "address[]"
        }
      ],
      "payable": false,
      "stateMutability": "nonpayable",
      "type": "function"
    },
    {
      "constant": false,
      "inputs": [
        {
          "name": "_address",
          "type": "address"
        },
        {
          "name": "nombre",
          "type": "string"
        },
        {
          "name": "apellido",
          "type": "string"
        },
        {
          "name": "cedula",
          "type": "string"
        },
        {
          "name": "email",
          "type": "string"
        },
        {
          "name": "contrasena",
          "type": "string"
        },
        {
          "name": "nombreEstudiante",
          "type": "string"
        }
      ],
      "name": "registrarProfesores",
      "outputs": [
        {
          "name": "",
          "type": "string"
        },
        {
          "name": "",
          "type": "string"
        },
        {
          "name": "",
          "type": "string"
        },
        {
          "name": "",
          "type": "string"
        },
        {
          "name": "",
          "type": "string"
        }
      ],
      "payable": false,
      "stateMutability": "nonpayable",
      "type": "function"
    },
    {
      "constant": true,
      "inputs": [],
      "name": "getPadres",
      "outputs": [
        {
          "name": "",
          "type": "address[]"
        }
      ],
      "payable": false,
      "stateMutability": "view",
      "type": "function"
    },
    {
      "constant": true,
      "inputs": [
        {
          "name": "_address",
          "type": "address"
        }
      ],
      "name": "getPadres",
      "outputs": [
        {
          "name": "",
          "type": "string"
        },
        {
          "name": "",
          "type": "string"
        },
        {
          "name": "",
          "type": "string"
        },
        {
          "name": "",
          "type": "string"
        },
        {
          "name": "",
          "type": "string"
        },
        {
          "name": "",
          "type": "string"
        }
      ],
      "payable": false,
      "stateMutability": "view",
      "type": "function"
    },
    {
      "constant": true,
      "inputs": [],
      "name": "getProfesores",
      "outputs": [
        {
          "name": "",
          "type": "address[]"
        }
      ],
      "payable": false,
      "stateMutability": "view",
      "type": "function"
    },
    {
      "constant": true,
      "inputs": [
        {
          "name": "_address",
          "type": "address"
        }
      ],
      "name": "getProfesores",
      "outputs": [
        {
          "name": "",
          "type": "string"
        },
        {
          "name": "",
          "type": "string"
        },
        {
          "name": "",
          "type": "string"
        },
        {
          "name": "",
          "type": "string"
        },
        {
          "name": "",
          "type": "string"
        }
      ],
      "payable": false,
      "stateMutability": "view",
      "type": "function"
    }
  ],
  "bytecode": "0x608060405234801561001057600080fd5b50612087806100206000396000f3fe60806040526004361061008d576000357c0100000000000000000000000000000000000000000000000000000000900463ffffffff168062ca03531461009257806309b328bf146100fe5780638f6720ed1461016a578063919dd88d146101e5578063a3631ad5146105c0578063abfb39871461083a578063f49252a714610c15578063fe6e832e14610c90575b600080fd5b34801561009e57600080fd5b506100a7610f76565b6040518080602001828103825283818151815260200191508051906020019060200280838360005b838110156100ea5780820151818401526020810190506100cf565b505050509050019250505060405180910390f35b34801561010a57600080fd5b50610113611004565b6040518080602001828103825283818151815260200191508051906020019060200280838360005b8381101561015657808201518184015260208101905061013b565b505050509050019250505060405180910390f35b34801561017657600080fd5b506101a36004803603602081101561018d57600080fd5b8101908080359060200190929190505050611092565b604051808273ffffffffffffffffffffffffffffffffffffffff1673ffffffffffffffffffffffffffffffffffffffff16815260200191505060405180910390f35b3480156101f157600080fd5b506105be600480360360e081101561020857600080fd5b81019080803573ffffffffffffffffffffffffffffffffffffffff1690602001909291908035906020019064010000000081111561024557600080fd5b82018360208201111561025757600080fd5b8035906020019184600183028401116401000000008311171561027957600080fd5b91908080601f016020809104026020016040519081016040528093929190818152602001838380828437600081840152601f19601f820116905080830192505050505050509192919290803590602001906401000000008111156102dc57600080fd5b8201836020820111156102ee57600080fd5b8035906020019184600183028401116401000000008311171561031057600080fd5b91908080601f016020809104026020016040519081016040528093929190818152602001838380828437600081840152601f19601f8201169050808301925050505050505091929192908035906020019064010000000081111561037357600080fd5b82018360208201111561038557600080fd5b803590602001918460018302840111640100000000831117156103a757600080fd5b91908080601f016020809104026020016040519081016040528093929190818152602001838380828437600081840152601f19601f8201169050808301925050505050505091929192908035906020019064010000000081111561040a57600080fd5b82018360208201111561041c57600080fd5b8035906020019184600183028401116401000000008311171561043e57600080fd5b91908080601f016020809104026020016040519081016040528093929190818152602001838380828437600081840152601f19601f820116905080830192505050505050509192919290803590602001906401000000008111156104a157600080fd5b8201836020820111156104b357600080fd5b803590602001918460018302840111640100000000831117156104d557600080fd5b91908080601f016020809104026020016040519081016040528093929190818152602001838380828437600081840152601f19601f8201169050808301925050505050505091929192908035906020019064010000000081111561053857600080fd5b82018360208201111561054a57600080fd5b8035906020019184600183028401116401000000008311171561056c57600080fd5b91908080601f016020809104026020016040519081016040528093929190818152602001838380828437600081840152601f19601f8201169050808301925050505050505091929192905050506110d0565b005b3480156105cc57600080fd5b5061060f600480360360208110156105e357600080fd5b81019080803573ffffffffffffffffffffffffffffffffffffffff169060200190929190505050611348565b60405180806020018060200180602001806020018060200186810386528b818151815260200191508051906020019080838360005b8381101561065f578082015181840152602081019050610644565b50505050905090810190601f16801561068c5780820380516001836020036101000a031916815260200191505b5086810385528a818151815260200191508051906020019080838360005b838110156106c55780820151818401526020810190506106aa565b50505050905090810190601f1680156106f25780820380516001836020036101000a031916815260200191505b50868103845289818151815260200191508051906020019080838360005b8381101561072b578082015181840152602081019050610710565b50505050905090810190601f1680156107585780820380516001836020036101000a031916815260200191505b50868103835288818151815260200191508051906020019080838360005b83811015610791578082015181840152602081019050610776565b50505050905090810190601f1680156107be5780820380516001836020036101000a031916815260200191505b50868103825287818151815260200191508051906020019080838360005b838110156107f75780820151818401526020810190506107dc565b50505050905090810190601f1680156108245780820380516001836020036101000a031916815260200191505b509a505050505050505050505060405180910390f35b34801561084657600080fd5b50610c13600480360360e081101561085d57600080fd5b81019080803573ffffffffffffffffffffffffffffffffffffffff1690602001909291908035906020019064010000000081111561089a57600080fd5b8201836020820111156108ac57600080fd5b803590602001918460018302840111640100000000831117156108ce57600080fd5b91908080601f016020809104026020016040519081016040528093929190818152602001838380828437600081840152601f19601f8201169050808301925050505050505091929192908035906020019064010000000081111561093157600080fd5b82018360208201111561094357600080fd5b8035906020019184600183028401116401000000008311171561096557600080fd5b91908080601f016020809104026020016040519081016040528093929190818152602001838380828437600081840152601f19601f820116905080830192505050505050509192919290803590602001906401000000008111156109c857600080fd5b8201836020820111156109da57600080fd5b803590602001918460018302840111640100000000831117156109fc57600080fd5b91908080601f016020809104026020016040519081016040528093929190818152602001838380828437600081840152601f19601f82011690508083019250505050505050919291929080359060200190640100000000811115610a5f57600080fd5b820183602082011115610a7157600080fd5b80359060200191846001830284011164010000000083111715610a9357600080fd5b91908080601f016020809104026020016040519081016040528093929190818152602001838380828437600081840152601f19601f82011690508083019250505050505050919291929080359060200190640100000000811115610af657600080fd5b820183602082011115610b0857600080fd5b80359060200191846001830284011164010000000083111715610b2a57600080fd5b91908080601f016020809104026020016040519081016040528093929190818152602001838380828437600081840152601f19601f82011690508083019250505050505050919291929080359060200190640100000000811115610b8d57600080fd5b820183602082011115610b9f57600080fd5b80359060200191846001830284011164010000000083111715610bc157600080fd5b91908080601f016020809104026020016040519081016040528093929190818152602001838380828437600081840152601f19601f8201169050808301925050505050505091929192905050506117b9565b005b348015610c2157600080fd5b50610c4e60048036036020811015610c3857600080fd5b8101908080359060200190929190505050611a2c565b604051808273ffffffffffffffffffffffffffffffffffffffff1673ffffffffffffffffffffffffffffffffffffffff16815260200191505060405180910390f35b348015610c9c57600080fd5b50610cdf60048036036020811015610cb357600080fd5b81019080803573ffffffffffffffffffffffffffffffffffffffff169060200190929190505050611a6a565b6040518080602001806020018060200180602001806020018060200187810387528d818151815260200191508051906020019080838360005b83811015610d33578082015181840152602081019050610d18565b50505050905090810190601f168015610d605780820380516001836020036101000a031916815260200191505b5087810386528c818151815260200191508051906020019080838360005b83811015610d99578082015181840152602081019050610d7e565b50505050905090810190601f168015610dc65780820380516001836020036101000a031916815260200191505b5087810385528b818151815260200191508051906020019080838360005b83811015610dff578082015181840152602081019050610de4565b50505050905090810190601f168015610e2c5780820380516001836020036101000a031916815260200191505b5087810384528a818151815260200191508051906020019080838360005b83811015610e65578082015181840152602081019050610e4a565b50505050905090810190601f168015610e925780820380516001836020036101000a031916815260200191505b50878103835289818151815260200191508051906020019080838360005b83811015610ecb578082015181840152602081019050610eb0565b50505050905090810190601f168015610ef85780820380516001836020036101000a031916815260200191505b50878103825288818151815260200191508051906020019080838360005b83811015610f31578082015181840152602081019050610f16565b50505050905090810190601f168015610f5e5780820380516001836020036101000a031916815260200191505b509c5050505050505050505050505060405180910390f35b60606003805480602002602001604051908101604052809291908181526020018280548015610ffa57602002820191906000526020600020905b8160009054906101000a900473ffffffffffffffffffffffffffffffffffffffff1673ffffffffffffffffffffffffffffffffffffffff1681526020019060010190808311610fb0575b5050505050905090565b6060600280548060200260200160405190810160405280929190818152602001828054801561108857602002820191906000526020600020905b8160009054906101000a900473ffffffffffffffffffffffffffffffffffffffff1673ffffffffffffffffffffffffffffffffffffffff168152602001906001019080831161103e575b5050505050905090565b6002818154811015156110a157fe5b906000526020600020016000915054906101000a900473ffffffffffffffffffffffffffffffffffffffff1681565b85600160008973ffffffffffffffffffffffffffffffffffffffff1673ffffffffffffffffffffffffffffffffffffffff1681526020019081526020016000206000019080519060200190611126929190611fb6565b5084600160008973ffffffffffffffffffffffffffffffffffffffff1673ffffffffffffffffffffffffffffffffffffffff168152602001908152602001600020600101908051906020019061117d929190611fb6565b5083600160008973ffffffffffffffffffffffffffffffffffffffff1673ffffffffffffffffffffffffffffffffffffffff16815260200190815260200160002060020190805190602001906111d4929190611fb6565b5082600160008973ffffffffffffffffffffffffffffffffffffffff1673ffffffffffffffffffffffffffffffffffffffff168152602001908152602001600020600301908051906020019061122b929190611fb6565b5081600160008973ffffffffffffffffffffffffffffffffffffffff1673ffffffffffffffffffffffffffffffffffffffff1681526020019081526020016000206004019080519060200190611282929190611fb6565b50806000808973ffffffffffffffffffffffffffffffffffffffff1673ffffffffffffffffffffffffffffffffffffffff16815260200190815260200160002060050190805190602001906112d8929190611fb6565b5060038790806001815401808255809150509060018203906000526020600020016000909192909190916101000a81548173ffffffffffffffffffffffffffffffffffffffff021916908373ffffffffffffffffffffffffffffffffffffffff1602179055505050505050505050565b6060806060806060600160008773ffffffffffffffffffffffffffffffffffffffff1673ffffffffffffffffffffffffffffffffffffffff168152602001908152602001600020600001600160008873ffffffffffffffffffffffffffffffffffffffff1673ffffffffffffffffffffffffffffffffffffffff168152602001908152602001600020600101600160008973ffffffffffffffffffffffffffffffffffffffff1673ffffffffffffffffffffffffffffffffffffffff168152602001908152602001600020600201600160008a73ffffffffffffffffffffffffffffffffffffffff1673ffffffffffffffffffffffffffffffffffffffff168152602001908152602001600020600301600160008b73ffffffffffffffffffffffffffffffffffffffff1673ffffffffffffffffffffffffffffffffffffffff168152602001908152602001600020600401848054600181600116156101000203166002900480601f01602080910402602001604051908101604052809291908181526020018280546001816001161561010002031660029004801561152f5780601f106115045761010080835404028352916020019161152f565b820191906000526020600020905b81548152906001019060200180831161151257829003601f168201915b50505050509450838054600181600116156101000203166002900480601f0160208091040260200160405190810160405280929190818152602001828054600181600116156101000203166002900480156115cb5780601f106115a0576101008083540402835291602001916115cb565b820191906000526020600020905b8154815290600101906020018083116115ae57829003601f168201915b50505050509350828054600181600116156101000203166002900480601f0160208091040260200160405190810160405280929190818152602001828054600181600116156101000203166002900480156116675780601f1061163c57610100808354040283529160200191611667565b820191906000526020600020905b81548152906001019060200180831161164a57829003601f168201915b50505050509250818054600181600116156101000203166002900480601f0160208091040260200160405190810160405280929190818152602001828054600181600116156101000203166002900480156117035780601f106116d857610100808354040283529160200191611703565b820191906000526020600020905b8154815290600101906020018083116116e657829003601f168201915b50505050509150808054600181600116156101000203166002900480601f01602080910402602001604051908101604052809291908181526020018280546001816001161561010002031660029004801561179f5780601f106117745761010080835404028352916020019161179f565b820191906000526020600020905b81548152906001019060200180831161178257829003601f168201915b505050505090509450945094509450945091939590929450565b856000808973ffffffffffffffffffffffffffffffffffffffff1673ffffffffffffffffffffffffffffffffffffffff168152602001908152602001600020600001908051906020019061180e929190611fb6565b50846000808973ffffffffffffffffffffffffffffffffffffffff1673ffffffffffffffffffffffffffffffffffffffff1681526020019081526020016000206001019080519060200190611864929190611fb6565b50836000808973ffffffffffffffffffffffffffffffffffffffff1673ffffffffffffffffffffffffffffffffffffffff16815260200190815260200160002060020190805190602001906118ba929190611fb6565b50826000808973ffffffffffffffffffffffffffffffffffffffff1673ffffffffffffffffffffffffffffffffffffffff1681526020019081526020016000206003019080519060200190611910929190611fb6565b50816000808973ffffffffffffffffffffffffffffffffffffffff1673ffffffffffffffffffffffffffffffffffffffff1681526020019081526020016000206004019080519060200190611966929190611fb6565b50806000808973ffffffffffffffffffffffffffffffffffffffff1673ffffffffffffffffffffffffffffffffffffffff16815260200190815260200160002060050190805190602001906119bc929190611fb6565b5060028790806001815401808255809150509060018203906000526020600020016000909192909190916101000a81548173ffffffffffffffffffffffffffffffffffffffff021916908373ffffffffffffffffffffffffffffffffffffffff1602179055505050505050505050565b600381815481101515611a3b57fe5b906000526020600020016000915054906101000a900473ffffffffffffffffffffffffffffffffffffffff1681565b6060806060806060806000808873ffffffffffffffffffffffffffffffffffffffff1673ffffffffffffffffffffffffffffffffffffffff1681526020019081526020016000206000016000808973ffffffffffffffffffffffffffffffffffffffff1673ffffffffffffffffffffffffffffffffffffffff1681526020019081526020016000206001016000808a73ffffffffffffffffffffffffffffffffffffffff1673ffffffffffffffffffffffffffffffffffffffff1681526020019081526020016000206002016000808b73ffffffffffffffffffffffffffffffffffffffff1673ffffffffffffffffffffffffffffffffffffffff1681526020019081526020016000206003016000808c73ffffffffffffffffffffffffffffffffffffffff1673ffffffffffffffffffffffffffffffffffffffff1681526020019081526020016000206004016000808d73ffffffffffffffffffffffffffffffffffffffff1673ffffffffffffffffffffffffffffffffffffffff168152602001908152602001600020600501858054600181600116156101000203166002900480601f016020809104026020016040519081016040528092919081815260200182805460018160011615610100020316600290048015611c8e5780601f10611c6357610100808354040283529160200191611c8e565b820191906000526020600020905b815481529060010190602001808311611c7157829003601f168201915b50505050509550848054600181600116156101000203166002900480601f016020809104026020016040519081016040528092919081815260200182805460018160011615610100020316600290048015611d2a5780601f10611cff57610100808354040283529160200191611d2a565b820191906000526020600020905b815481529060010190602001808311611d0d57829003601f168201915b50505050509450838054600181600116156101000203166002900480601f016020809104026020016040519081016040528092919081815260200182805460018160011615610100020316600290048015611dc65780601f10611d9b57610100808354040283529160200191611dc6565b820191906000526020600020905b815481529060010190602001808311611da957829003601f168201915b50505050509350828054600181600116156101000203166002900480601f016020809104026020016040519081016040528092919081815260200182805460018160011615610100020316600290048015611e625780601f10611e3757610100808354040283529160200191611e62565b820191906000526020600020905b815481529060010190602001808311611e4557829003601f168201915b50505050509250818054600181600116156101000203166002900480601f016020809104026020016040519081016040528092919081815260200182805460018160011615610100020316600290048015611efe5780601f10611ed357610100808354040283529160200191611efe565b820191906000526020600020905b815481529060010190602001808311611ee157829003601f168201915b50505050509150808054600181600116156101000203166002900480601f016020809104026020016040519081016040528092919081815260200182805460018160011615610100020316600290048015611f9a5780601f10611f6f57610100808354040283529160200191611f9a565b820191906000526020600020905b815481529060010190602001808311611f7d57829003601f168201915b5050505050905095509550955095509550955091939550919395565b828054600181600116156101000203166002900490600052602060002090601f016020900481019282601f10611ff757805160ff1916838001178555612025565b82800160010185558215612025579182015b82811115612024578251825591602001919060010190612009565b5b5090506120329190612036565b5090565b61205891905b8082111561205457600081600090555060010161203c565b5090565b9056fea165627a7a723058200306e07657f80a9f013346084f6f3344f55946a69f1b6e3efbcfd05c04e527640029",
  "source": "pragma solidity ^0.5.0;\r\n\r\ncontract Zagite{\r\n\t\r\n\tstruct Padre{\r\n\t    string nombre;\r\n\t    string apellido; \r\n        string cedula;\r\n\t    string email;\r\n\t    string contrasena;\r\n\t\tstring nombreEstudiante;\r\n\r\n\t}\r\n\tstruct Profesor{\r\n\t    string nombre;\r\n\t    string apellido; \r\n        string cedula;\r\n\t    string email;\r\n\t    string contrasena;\r\n\t\tstring nombreEstudiante;\r\n\t\r\n\t}\r\n\r\n\r\n\tmapping (address => Padre)padres;\r\n\tmapping(address =>Profesor)profesores;\r\n\r\n\taddress[] public padresAccts; \r\naddress[]public profesoresAccts;\r\n\r\n\t\r\n\tfunction registrarPadres(address _address, string memory nombre, string memory apellido,string memory cedula, string memory email, string memory contrasena, string memory nombreEstudiante)public {\r\n\t    padres[_address].nombre=nombre; \r\n\t    padres[_address].apellido=apellido;\r\n\t    padres[_address].cedula=cedula;\r\n\t    padres[_address].email=email;\r\n\t    padres[_address].contrasena=contrasena;\r\n     \tpadres[_address].nombreEstudiante=nombreEstudiante;\r\n\r\n\t    padresAccts.push(_address);\r\n\t    \r\n\t}\r\nfunction registrarProfesores(address _address, string memory nombre, string memory apellido,string memory cedula, string memory email, string memory contrasena,string memory nombreEstudiante)public {\r\n\t    profesores[_address].nombre=nombre; \r\n\t    profesores[_address].apellido=apellido;\r\n\t    profesores[_address].cedula=cedula;\r\n\t    profesores[_address].email=email;\r\n\t    profesores[_address].contrasena=contrasena;\r\n\t\tpadres[_address].nombreEstudiante=nombreEstudiante;\r\n\r\n\r\n\t    profesoresAccts.push(_address);\r\n\t    \r\n\t}\r\n\r\n\t\r\n\t\r\n\tfunction getPadres() view public returns (address[] memory){\t\r\n\t    return padresAccts;\r\n\t    \r\n\t}\r\n\tfunction getProfesores() view public returns (address[] memory){\t\r\n\t    return profesoresAccts;\r\n\t    \r\n\t}\r\n\t\r\n\tfunction getPadres(address _address) view public returns (string memory, string memory, string memory, string memory, string memory, string memory) {\r\n\t    return (padres[_address].nombre, padres[_address].apellido, padres[_address].cedula, padres[_address].email,padres[_address].contrasena, padres[_address].nombreEstudiante);\r\n\t}\r\n\tfunction getProfesores(address _address) view public returns (string memory, string memory, string memory, string memory, string memory) {\r\n\t    return (profesores[_address].nombre, profesores[_address].apellido, profesores[_address].cedula,profesores[_address].email, profesores[_address].contrasena);\r\n\t}\r\n\t\r\n\t\r\n\t \r\n\t    \r\n\t}\r\n\t",
  "sourcePath": "C:/Users/maria/Desktop/BlockChain1/aplicacionAngular/contracts/Zagite.sol",
  "compiler": {
    "name": "solc",
    "version": "0.5.0+commit.1d4f565a.Emscripten.clang"
  },
  "schemaVersion": "3.0.9",
  "updatedAt": "2019-05-31T14:20:14.264Z",
  "devdoc": {
    "methods": {}
  },
  "userdoc": {
    "methods": {}
  }
}